{
  "contractName": "Bonsai",
  "abi": [
    {
      "inputs": [],
      "stateMutability": "nonpayable",
      "type": "constructor"
    },
    {
      "anonymous": false,
      "inputs": [
        {
          "indexed": true,
          "internalType": "address",
          "name": "owner",
          "type": "address"
        },
        {
          "indexed": true,
          "internalType": "address",
          "name": "approved",
          "type": "address"
        },
        {
          "indexed": true,
          "internalType": "uint256",
          "name": "tokenId",
          "type": "uint256"
        }
      ],
      "name": "Approval",
      "type": "event"
    },
    {
      "anonymous": false,
      "inputs": [
        {
          "indexed": true,
          "internalType": "address",
          "name": "owner",
          "type": "address"
        },
        {
          "indexed": true,
          "internalType": "address",
          "name": "operator",
          "type": "address"
        },
        {
          "indexed": false,
          "internalType": "bool",
          "name": "approved",
          "type": "bool"
        }
      ],
      "name": "ApprovalForAll",
      "type": "event"
    },
    {
      "anonymous": false,
      "inputs": [
        {
          "indexed": true,
          "internalType": "address",
          "name": "previousOwner",
          "type": "address"
        },
        {
          "indexed": true,
          "internalType": "address",
          "name": "newOwner",
          "type": "address"
        }
      ],
      "name": "OwnershipTransferred",
      "type": "event"
    },
    {
      "anonymous": false,
      "inputs": [
        {
          "indexed": true,
          "internalType": "address",
          "name": "from",
          "type": "address"
        },
        {
          "indexed": true,
          "internalType": "address",
          "name": "to",
          "type": "address"
        },
        {
          "indexed": true,
          "internalType": "uint256",
          "name": "tokenId",
          "type": "uint256"
        }
      ],
      "name": "Transfer",
      "type": "event"
    },
    {
      "inputs": [
        {
          "internalType": "address",
          "name": "to",
          "type": "address"
        },
        {
          "internalType": "uint256",
          "name": "tokenId",
          "type": "uint256"
        }
      ],
      "name": "approve",
      "outputs": [],
      "stateMutability": "nonpayable",
      "type": "function"
    },
    {
      "inputs": [
        {
          "internalType": "address",
          "name": "owner",
          "type": "address"
        }
      ],
      "name": "balanceOf",
      "outputs": [
        {
          "internalType": "uint256",
          "name": "",
          "type": "uint256"
        }
      ],
      "stateMutability": "view",
      "type": "function",
      "constant": true
    },
    {
      "inputs": [],
      "name": "baseURI",
      "outputs": [
        {
          "internalType": "string",
          "name": "",
          "type": "string"
        }
      ],
      "stateMutability": "view",
      "type": "function",
      "constant": true
    },
    {
      "inputs": [
        {
          "internalType": "uint256",
          "name": "tokenId",
          "type": "uint256"
        }
      ],
      "name": "getApproved",
      "outputs": [
        {
          "internalType": "address",
          "name": "",
          "type": "address"
        }
      ],
      "stateMutability": "view",
      "type": "function",
      "constant": true
    },
    {
      "inputs": [
        {
          "internalType": "address",
          "name": "owner",
          "type": "address"
        },
        {
          "internalType": "address",
          "name": "operator",
          "type": "address"
        }
      ],
      "name": "isApprovedForAll",
      "outputs": [
        {
          "internalType": "bool",
          "name": "",
          "type": "bool"
        }
      ],
      "stateMutability": "view",
      "type": "function",
      "constant": true
    },
    {
      "inputs": [],
      "name": "name",
      "outputs": [
        {
          "internalType": "string",
          "name": "",
          "type": "string"
        }
      ],
      "stateMutability": "view",
      "type": "function",
      "constant": true
    },
    {
      "inputs": [],
      "name": "owner",
      "outputs": [
        {
          "internalType": "address",
          "name": "",
          "type": "address"
        }
      ],
      "stateMutability": "view",
      "type": "function",
      "constant": true
    },
    {
      "inputs": [
        {
          "internalType": "uint256",
          "name": "tokenId",
          "type": "uint256"
        }
      ],
      "name": "ownerOf",
      "outputs": [
        {
          "internalType": "address",
          "name": "",
          "type": "address"
        }
      ],
      "stateMutability": "view",
      "type": "function",
      "constant": true
    },
    {
      "inputs": [
        {
          "internalType": "address",
          "name": "",
          "type": "address"
        }
      ],
      "name": "plantDict",
      "outputs": [
        {
          "internalType": "string",
          "name": "",
          "type": "string"
        }
      ],
      "stateMutability": "view",
      "type": "function",
      "constant": true
    },
    {
      "inputs": [
        {
          "internalType": "uint256",
          "name": "",
          "type": "uint256"
        }
      ],
      "name": "plants",
      "outputs": [
        {
          "internalType": "uint256",
          "name": "id",
          "type": "uint256"
        },
        {
          "internalType": "string",
          "name": "name",
          "type": "string"
        },
        {
          "internalType": "uint16",
          "name": "price",
          "type": "uint16"
        }
      ],
      "stateMutability": "view",
      "type": "function",
      "constant": true
    },
    {
      "inputs": [],
      "name": "renounceOwnership",
      "outputs": [],
      "stateMutability": "nonpayable",
      "type": "function"
    },
    {
      "inputs": [
        {
          "internalType": "address",
          "name": "from",
          "type": "address"
        },
        {
          "internalType": "address",
          "name": "to",
          "type": "address"
        },
        {
          "internalType": "uint256",
          "name": "tokenId",
          "type": "uint256"
        }
      ],
      "name": "safeTransferFrom",
      "outputs": [],
      "stateMutability": "nonpayable",
      "type": "function"
    },
    {
      "inputs": [
        {
          "internalType": "address",
          "name": "from",
          "type": "address"
        },
        {
          "internalType": "address",
          "name": "to",
          "type": "address"
        },
        {
          "internalType": "uint256",
          "name": "tokenId",
          "type": "uint256"
        },
        {
          "internalType": "bytes",
          "name": "_data",
          "type": "bytes"
        }
      ],
      "name": "safeTransferFrom",
      "outputs": [],
      "stateMutability": "nonpayable",
      "type": "function"
    },
    {
      "inputs": [
        {
          "internalType": "address",
          "name": "operator",
          "type": "address"
        },
        {
          "internalType": "bool",
          "name": "approved",
          "type": "bool"
        }
      ],
      "name": "setApprovalForAll",
      "outputs": [],
      "stateMutability": "nonpayable",
      "type": "function"
    },
    {
      "inputs": [
        {
          "internalType": "bytes4",
          "name": "interfaceId",
          "type": "bytes4"
        }
      ],
      "name": "supportsInterface",
      "outputs": [
        {
          "internalType": "bool",
          "name": "",
          "type": "bool"
        }
      ],
      "stateMutability": "view",
      "type": "function",
      "constant": true
    },
    {
      "inputs": [],
      "name": "symbol",
      "outputs": [
        {
          "internalType": "string",
          "name": "",
          "type": "string"
        }
      ],
      "stateMutability": "view",
      "type": "function",
      "constant": true
    },
    {
      "inputs": [
        {
          "internalType": "uint256",
          "name": "index",
          "type": "uint256"
        }
      ],
      "name": "tokenByIndex",
      "outputs": [
        {
          "internalType": "uint256",
          "name": "",
          "type": "uint256"
        }
      ],
      "stateMutability": "view",
      "type": "function",
      "constant": true
    },
    {
      "inputs": [
        {
          "internalType": "address",
          "name": "owner",
          "type": "address"
        },
        {
          "internalType": "uint256",
          "name": "index",
          "type": "uint256"
        }
      ],
      "name": "tokenOfOwnerByIndex",
      "outputs": [
        {
          "internalType": "uint256",
          "name": "",
          "type": "uint256"
        }
      ],
      "stateMutability": "view",
      "type": "function",
      "constant": true
    },
    {
      "inputs": [
        {
          "internalType": "uint256",
          "name": "tokenId",
          "type": "uint256"
        }
      ],
      "name": "tokenURI",
      "outputs": [
        {
          "internalType": "string",
          "name": "",
          "type": "string"
        }
      ],
      "stateMutability": "view",
      "type": "function",
      "constant": true
    },
    {
      "inputs": [],
      "name": "totalSupply",
      "outputs": [
        {
          "internalType": "uint256",
          "name": "",
          "type": "uint256"
        }
      ],
      "stateMutability": "view",
      "type": "function",
      "constant": true
    },
    {
      "inputs": [
        {
          "internalType": "address",
          "name": "from",
          "type": "address"
        },
        {
          "internalType": "address",
          "name": "to",
          "type": "address"
        },
        {
          "internalType": "uint256",
          "name": "tokenId",
          "type": "uint256"
        }
      ],
      "name": "transferFrom",
      "outputs": [],
      "stateMutability": "nonpayable",
      "type": "function"
    },
    {
      "inputs": [
        {
          "internalType": "address",
          "name": "newOwner",
          "type": "address"
        }
      ],
      "name": "transferOwnership",
      "outputs": [],
      "stateMutability": "nonpayable",
      "type": "function"
    },
    {
      "inputs": [
        {
          "internalType": "string",
          "name": "_plant",
          "type": "string"
        },
        {
          "internalType": "address",
          "name": "_address",
          "type": "address"
        }
      ],
      "name": "setPlantDict",
      "outputs": [],
      "stateMutability": "nonpayable",
      "type": "function"
    },
    {
      "inputs": [
        {
          "internalType": "address",
          "name": "_to",
          "type": "address"
        },
        {
          "internalType": "string",
          "name": "_name",
          "type": "string"
        },
        {
          "internalType": "uint16",
          "name": "_price",
          "type": "uint16"
        }
      ],
      "name": "mint",
      "outputs": [],
      "stateMutability": "nonpayable",
      "type": "function"
    },
    {
      "inputs": [
        {
          "internalType": "address",
          "name": "_owner",
          "type": "address"
        }
      ],
      "name": "getPlantsByOwner",
      "outputs": [
        {
          "components": [
            {
              "internalType": "uint256",
              "name": "id",
              "type": "uint256"
            },
            {
              "internalType": "string",
              "name": "name",
              "type": "string"
            },
            {
              "internalType": "uint16",
              "name": "price",
              "type": "uint16"
            }
          ],
          "internalType": "struct Bonsai.Plant[]",
          "name": "",
          "type": "tuple[]"
        }
      ],
      "stateMutability": "view",
      "type": "function",
      "constant": true
    },
    {
      "inputs": [],
      "name": "getMyPlant",
      "outputs": [
        {
          "components": [
            {
              "internalType": "uint256",
              "name": "id",
              "type": "uint256"
            },
            {
              "internalType": "string",
              "name": "name",
              "type": "string"
            },
            {
              "internalType": "uint16",
              "name": "price",
              "type": "uint16"
            }
          ],
          "internalType": "struct Bonsai.Plant[]",
          "name": "",
          "type": "tuple[]"
        }
      ],
      "stateMutability": "view",
      "type": "function",
      "constant": true
    },
    {
      "inputs": [
        {
          "internalType": "uint256",
          "name": "_tokenId",
          "type": "uint256"
        }
      ],
      "name": "burn",
      "outputs": [],
      "stateMutability": "nonpayable",
      "type": "function"
    }
  ],
  "bytecode": "0x60806040523480156200001157600080fd5b506040518060400160405280600681526020017f426f6e73616900000000000000000000000000000000000000000000000000008152506040518060400160405280600281526020017f4253000000000000000000000000000000000000000000000000000000000000815250620000966301ffc9a760e01b620001c960201b60201c565b8160069080519060200190620000ae929190620002a9565b508060079080519060200190620000c7929190620002a9565b50620000e06380ac58cd60e01b620001c960201b60201c565b620000f8635b5e139f60e01b620001c960201b60201c565b6200011063780e9d6360e01b620001c960201b60201c565b5050600062000124620002a160201b60201c565b905080600a60006101000a81548173ffffffffffffffffffffffffffffffffffffffff021916908373ffffffffffffffffffffffffffffffffffffffff1602179055508073ffffffffffffffffffffffffffffffffffffffff16600073ffffffffffffffffffffffffffffffffffffffff167f8be0079c531659141344cd1fd0a4f28419497f9722a3daafe3b4186f6b6457e060405160405180910390a350620003cd565b63ffffffff60e01b817bffffffffffffffffffffffffffffffffffffffffffffffffffffffff1916141562000235576040517f08c379a00000000000000000000000000000000000000000000000000000000081526004016200022c906200039a565b60405180910390fd5b6001600080837bffffffffffffffffffffffffffffffffffffffffffffffffffffffff19167bffffffffffffffffffffffffffffffffffffffffffffffffffffffff1916815260200190815260200160002060006101000a81548160ff02191690831515021790555050565b600033905090565b828054600181600116156101000203166002900490600052602060002090601f016020900481019282601f10620002ec57805160ff19168380011785556200031d565b828001600101855582156200031d579182015b828111156200031c578251825591602001919060010190620002ff565b5b5090506200032c919062000330565b5090565b6200035591905b808211156200035157600081600090555060010162000337565b5090565b90565b600062000367601c83620003bc565b91507f4552433136353a20696e76616c696420696e74657266616365206964000000006000830152602082019050919050565b60006020820190508181036000830152620003b58162000358565b9050919050565b600082825260208201905092915050565b613f1080620003dd6000396000f3fe608060405234801561001057600080fd5b50600436106101a95760003560e01c80636352211e116100f9578063a22cb46511610097578063c87b56dd11610071578063c87b56dd146104e0578063e59c2a0314610510578063e985e9c51461052e578063f2fde38b1461055e576101a9565b8063a22cb46514610478578063a691a04014610494578063b88d4fde146104c4576101a9565b8063715018a6116100d3578063715018a6146104005780638da5cb5b1461040a5780638dd2361c1461042857806395d89b411461045a576101a9565b80636352211e146103825780636c0360eb146103b257806370a08231146103d0576101a9565b806323b872dd1161016657806342842e0e1161014057806342842e0e146102fe57806342966c681461031a578063481f24bd146103365780634f6ccce714610352576101a9565b806323b872dd146102965780632f745c59146102b25780633e5f2ebc146102e2576101a9565b806301ffc9a7146101ae57806306fdde03146101de578063081812fc146101fc578063095ea7b31461022c5780631123d4de1461024857806318160ddd14610278575b600080fd5b6101c860048036038101906101c39190612e5c565b61057a565b6040516101d59190613912565b60405180910390f35b6101e66105e1565b6040516101f3919061392d565b60405180910390f35b61021660048036038101906102119190612f02565b610683565b6040516102239190613889565b60405180910390f35b61024660048036038101906102419190612e20565b610708565b005b610262600480360381019061025d9190612c4e565b610820565b60405161026f91906138f0565b60405180910390f35b610280610a22565b60405161028d9190613baf565b60405180910390f35b6102b060048036038101906102ab9190612cb3565b610a33565b005b6102cc60048036038101906102c79190612e20565b610a93565b6040516102d99190613baf565b60405180910390f35b6102fc60048036038101906102f79190612db9565b610aee565b005b61031860048036038101906103139190612cb3565b610c1a565b005b610334600480360381019061032f9190612f02565b610c3a565b005b610350600480360381019061034b9190612eae565b610c88565b005b61036c60048036038101906103679190612f02565b610d5c565b6040516103799190613baf565b60405180910390f35b61039c60048036038101906103979190612f02565b610d7f565b6040516103a99190613889565b60405180910390f35b6103ba610db6565b6040516103c7919061392d565b60405180910390f35b6103ea60048036038101906103e59190612c4e565b610e58565b6040516103f79190613baf565b60405180910390f35b610408610f17565b005b610412611054565b60405161041f9190613889565b60405180910390f35b610442600480360381019061043d9190612f02565b61107e565b60405161045193929190613bca565b60405180910390f35b61046261115b565b60405161046f919061392d565b60405180910390f35b610492600480360381019061048d9190612d7d565b6111fd565b005b6104ae60048036038101906104a99190612c4e565b61137e565b6040516104bb919061392d565b60405180910390f35b6104de60048036038101906104d99190612d02565b61142e565b005b6104fa60048036038101906104f59190612f02565b611490565b604051610507919061392d565b60405180910390f35b610518611613565b60405161052591906138f0565b60405180910390f35b61054860048036038101906105439190612c77565b611623565b6040516105559190613912565b60405180910390f35b61057860048036038101906105739190612c4e565b6116b7565b005b6000806000837bffffffffffffffffffffffffffffffffffffffffffffffffffffffff19167bffffffffffffffffffffffffffffffffffffffffffffffffffffffff1916815260200190815260200160002060009054906101000a900460ff169050919050565b606060068054600181600116156101000203166002900480601f0160208091040260200160405190810160405280929190818152602001828054600181600116156101000203166002900480156106795780601f1061064e57610100808354040283529160200191610679565b820191906000526020600020905b81548152906001019060200180831161065c57829003601f168201915b5050505050905090565b600061068e82611863565b6106cd576040517f08c379a00000000000000000000000000000000000000000000000000000000081526004016106c490613acf565b60405180910390fd5b6004600083815260200190815260200160002060009054906101000a900473ffffffffffffffffffffffffffffffffffffffff169050919050565b600061071382610d7f565b90508073ffffffffffffffffffffffffffffffffffffffff168373ffffffffffffffffffffffffffffffffffffffff161415610784576040517f08c379a000000000000000000000000000000000000000000000000000000000815260040161077b90613b4f565b60405180910390fd5b8073ffffffffffffffffffffffffffffffffffffffff166107a3611880565b73ffffffffffffffffffffffffffffffffffffffff1614806107d257506107d1816107cc611880565b611623565b5b610811576040517f08c379a000000000000000000000000000000000000000000000000000000000815260040161080890613a4f565b60405180910390fd5b61081b8383611888565b505050565b6060600061082d83610e58565b905060608167ffffffffffffffff8111801561084857600080fd5b5060405190808252806020026020018201604052801561088257816020015b61086f612a16565b8152602001906001900390816108675790505b509050600080905060008090505b600c80549050811015610a16576108a681611863565b80156108e557508573ffffffffffffffffffffffffffffffffffffffff166108cd82610d7f565b73ffffffffffffffffffffffffffffffffffffffff16145b15610a0957600c81815481106108f757fe5b906000526020600020906003020160405180606001604052908160008201548152602001600182018054600181600116156101000203166002900480601f0160208091040260200160405190810160405280929190818152602001828054600181600116156101000203166002900480156109b35780601f10610988576101008083540402835291602001916109b3565b820191906000526020600020905b81548152906001019060200180831161099657829003601f168201915b505050505081526020016002820160009054906101000a900461ffff1661ffff1661ffff16815250508383815181106109e857fe5b6020026020010181905250818060010192505083821415610a0857610a16565b5b8080600101915050610890565b50819350505050919050565b6000610a2e6002611941565b905090565b610a44610a3e611880565b82611956565b610a83576040517f08c379a0000000000000000000000000000000000000000000000000000000008152600401610a7a90613b6f565b60405180910390fd5b610a8e838383611a34565b505050565b6000610ae682600160008673ffffffffffffffffffffffffffffffffffffffff1673ffffffffffffffffffffffffffffffffffffffff168152602001908152602001600020611c4b90919063ffffffff16565b905092915050565b610af6611880565b73ffffffffffffffffffffffffffffffffffffffff16610b14611054565b73ffffffffffffffffffffffffffffffffffffffff1614610b6a576040517f08c379a0000000000000000000000000000000000000000000000000000000008152600401610b6190613aef565b60405180910390fd5b6000600c805490509050600c60405180606001604052808381526020018581526020018461ffff168152509080600181540180825580915050600190039060005260206000209060030201600090919091909150600082015181600001556020820151816001019080519060200190610be4929190612a3b565b5060408201518160020160006101000a81548161ffff021916908361ffff1602179055505050610c148482611c65565b50505050565b610c358383836040518060200160405280600081525061142e565b505050565b80610c4481610d7f565b73ffffffffffffffffffffffffffffffffffffffff163373ffffffffffffffffffffffffffffffffffffffff1614610c7b57600080fd5b610c8482611df3565b5050565b610c90611880565b73ffffffffffffffffffffffffffffffffffffffff16610cae611054565b73ffffffffffffffffffffffffffffffffffffffff1614610d04576040517f08c379a0000000000000000000000000000000000000000000000000000000008152600401610cfb90613aef565b60405180910390fd5b81600b60008373ffffffffffffffffffffffffffffffffffffffff1673ffffffffffffffffffffffffffffffffffffffff1681526020019081526020016000209080519060200190610d57929190612a3b565b505050565b600080610d73836002611f2d90919063ffffffff16565b50905080915050919050565b6000610daf82604051806060016040528060298152602001613eb2602991396002611f5c9092919063ffffffff16565b9050919050565b606060098054600181600116156101000203166002900480601f016020809104026020016040519081016040528092919081815260200182805460018160011615610100020316600290048015610e4e5780601f10610e2357610100808354040283529160200191610e4e565b820191906000526020600020905b815481529060010190602001808311610e3157829003601f168201915b5050505050905090565b60008073ffffffffffffffffffffffffffffffffffffffff168273ffffffffffffffffffffffffffffffffffffffff161415610ec9576040517f08c379a0000000000000000000000000000000000000000000000000000000008152600401610ec090613a6f565b60405180910390fd5b610f10600160008473ffffffffffffffffffffffffffffffffffffffff1673ffffffffffffffffffffffffffffffffffffffff168152602001908152602001600020611f7b565b9050919050565b610f1f611880565b73ffffffffffffffffffffffffffffffffffffffff16610f3d611054565b73ffffffffffffffffffffffffffffffffffffffff1614610f93576040517f08c379a0000000000000000000000000000000000000000000000000000000008152600401610f8a90613aef565b60405180910390fd5b600073ffffffffffffffffffffffffffffffffffffffff16600a60009054906101000a900473ffffffffffffffffffffffffffffffffffffffff1673ffffffffffffffffffffffffffffffffffffffff167f8be0079c531659141344cd1fd0a4f28419497f9722a3daafe3b4186f6b6457e060405160405180910390a36000600a60006101000a81548173ffffffffffffffffffffffffffffffffffffffff021916908373ffffffffffffffffffffffffffffffffffffffff160217905550565b6000600a60009054906101000a900473ffffffffffffffffffffffffffffffffffffffff16905090565b600c818154811061108b57fe5b9060005260206000209060030201600091509050806000015490806001018054600181600116156101000203166002900480601f01602080910402602001604051908101604052809291908181526020018280546001816001161561010002031660029004801561113d5780601f106111125761010080835404028352916020019161113d565b820191906000526020600020905b81548152906001019060200180831161112057829003601f168201915b5050505050908060020160009054906101000a900461ffff16905083565b606060078054600181600116156101000203166002900480601f0160208091040260200160405190810160405280929190818152602001828054600181600116156101000203166002900480156111f35780601f106111c8576101008083540402835291602001916111f3565b820191906000526020600020905b8154815290600101906020018083116111d657829003601f168201915b5050505050905090565b611205611880565b73ffffffffffffffffffffffffffffffffffffffff168273ffffffffffffffffffffffffffffffffffffffff161415611273576040517f08c379a000000000000000000000000000000000000000000000000000000000815260040161126a906139ef565b60405180910390fd5b8060056000611280611880565b73ffffffffffffffffffffffffffffffffffffffff1673ffffffffffffffffffffffffffffffffffffffff16815260200190815260200160002060008473ffffffffffffffffffffffffffffffffffffffff1673ffffffffffffffffffffffffffffffffffffffff16815260200190815260200160002060006101000a81548160ff0219169083151502179055508173ffffffffffffffffffffffffffffffffffffffff1661132d611880565b73ffffffffffffffffffffffffffffffffffffffff167f17307eab39ab6107e8899845ad3d59bd9653f200f220920489ca2b5937696c31836040516113729190613912565b60405180910390a35050565b600b6020528060005260406000206000915090508054600181600116156101000203166002900480601f0160208091040260200160405190810160405280929190818152602001828054600181600116156101000203166002900480156114265780601f106113fb57610100808354040283529160200191611426565b820191906000526020600020905b81548152906001019060200180831161140957829003601f168201915b505050505081565b61143f611439611880565b83611956565b61147e576040517f08c379a000000000000000000000000000000000000000000000000000000000815260040161147590613b6f565b60405180910390fd5b61148a84848484611f90565b50505050565b606061149b82611863565b6114da576040517f08c379a00000000000000000000000000000000000000000000000000000000081526004016114d190613b2f565b60405180910390fd5b6060600860008481526020019081526020016000208054600181600116156101000203166002900480601f0160208091040260200160405190810160405280929190818152602001828054600181600116156101000203166002900480156115835780601f1061155857610100808354040283529160200191611583565b820191906000526020600020905b81548152906001019060200180831161156657829003601f168201915b505050505090506060611594610db6565b90506000815114156115aa57819250505061160e565b6000825111156115df5780826040516020016115c7929190613865565b6040516020818303038152906040529250505061160e565b806115e985611fec565b6040516020016115fa929190613865565b604051602081830303815290604052925050505b919050565b606061161e33610820565b905090565b6000600560008473ffffffffffffffffffffffffffffffffffffffff1673ffffffffffffffffffffffffffffffffffffffff16815260200190815260200160002060008373ffffffffffffffffffffffffffffffffffffffff1673ffffffffffffffffffffffffffffffffffffffff16815260200190815260200160002060009054906101000a900460ff16905092915050565b6116bf611880565b73ffffffffffffffffffffffffffffffffffffffff166116dd611054565b73ffffffffffffffffffffffffffffffffffffffff1614611733576040517f08c379a000000000000000000000000000000000000000000000000000000000815260040161172a90613aef565b60405180910390fd5b600073ffffffffffffffffffffffffffffffffffffffff168173ffffffffffffffffffffffffffffffffffffffff1614156117a3576040517f08c379a000000000000000000000000000000000000000000000000000000000815260040161179a9061398f565b60405180910390fd5b8073ffffffffffffffffffffffffffffffffffffffff16600a60009054906101000a900473ffffffffffffffffffffffffffffffffffffffff1673ffffffffffffffffffffffffffffffffffffffff167f8be0079c531659141344cd1fd0a4f28419497f9722a3daafe3b4186f6b6457e060405160405180910390a380600a60006101000a81548173ffffffffffffffffffffffffffffffffffffffff021916908373ffffffffffffffffffffffffffffffffffffffff16021790555050565b600061187982600261213390919063ffffffff16565b9050919050565b600033905090565b816004600083815260200190815260200160002060006101000a81548173ffffffffffffffffffffffffffffffffffffffff021916908373ffffffffffffffffffffffffffffffffffffffff160217905550808273ffffffffffffffffffffffffffffffffffffffff166118fb83610d7f565b73ffffffffffffffffffffffffffffffffffffffff167f8c5be1e5ebec7d5bd14f71427d1e84f3dd0314c0f7b2291e5b200ac8c7c3b92560405160405180910390a45050565b600061194f8260000161214d565b9050919050565b600061196182611863565b6119a0576040517f08c379a000000000000000000000000000000000000000000000000000000000815260040161199790613a2f565b60405180910390fd5b60006119ab83610d7f565b90508073ffffffffffffffffffffffffffffffffffffffff168473ffffffffffffffffffffffffffffffffffffffff161480611a1a57508373ffffffffffffffffffffffffffffffffffffffff16611a0284610683565b73ffffffffffffffffffffffffffffffffffffffff16145b80611a2b5750611a2a8185611623565b5b91505092915050565b8273ffffffffffffffffffffffffffffffffffffffff16611a5482610d7f565b73ffffffffffffffffffffffffffffffffffffffff1614611aaa576040517f08c379a0000000000000000000000000000000000000000000000000000000008152600401611aa190613b0f565b60405180910390fd5b600073ffffffffffffffffffffffffffffffffffffffff168273ffffffffffffffffffffffffffffffffffffffff161415611b1a576040517f08c379a0000000000000000000000000000000000000000000000000000000008152600401611b11906139cf565b60405180910390fd5b611b2583838361215e565b611b30600082611888565b611b8181600160008673ffffffffffffffffffffffffffffffffffffffff1673ffffffffffffffffffffffffffffffffffffffff16815260200190815260200160002061216390919063ffffffff16565b50611bd381600160008573ffffffffffffffffffffffffffffffffffffffff1673ffffffffffffffffffffffffffffffffffffffff16815260200190815260200160002061217d90919063ffffffff16565b50611bea818360026121979092919063ffffffff16565b50808273ffffffffffffffffffffffffffffffffffffffff168473ffffffffffffffffffffffffffffffffffffffff167fddf252ad1be2c89b69c2b068fc378daa952ba7f163c4a11628f55a4df523b3ef60405160405180910390a4505050565b6000611c5a83600001836121cc565b60001c905092915050565b600073ffffffffffffffffffffffffffffffffffffffff168273ffffffffffffffffffffffffffffffffffffffff161415611cd5576040517f08c379a0000000000000000000000000000000000000000000000000000000008152600401611ccc90613aaf565b60405180910390fd5b611cde81611863565b15611d1e576040517f08c379a0000000000000000000000000000000000000000000000000000000008152600401611d15906139af565b60405180910390fd5b611d2a6000838361215e565b611d7b81600160008573ffffffffffffffffffffffffffffffffffffffff1673ffffffffffffffffffffffffffffffffffffffff16815260200190815260200160002061217d90919063ffffffff16565b50611d92818360026121979092919063ffffffff16565b50808273ffffffffffffffffffffffffffffffffffffffff16600073ffffffffffffffffffffffffffffffffffffffff167fddf252ad1be2c89b69c2b068fc378daa952ba7f163c4a11628f55a4df523b3ef60405160405180910390a45050565b6000611dfe82610d7f565b9050611e0c8160008461215e565b611e17600083611888565b60006008600084815260200190815260200160002080546001816001161561010002031660029004905014611e6657600860008381526020019081526020016000206000611e659190612abb565b5b611eb782600160008473ffffffffffffffffffffffffffffffffffffffff1673ffffffffffffffffffffffffffffffffffffffff16815260200190815260200160002061216390919063ffffffff16565b50611ecc82600261223990919063ffffffff16565b5081600073ffffffffffffffffffffffffffffffffffffffff168273ffffffffffffffffffffffffffffffffffffffff167fddf252ad1be2c89b69c2b068fc378daa952ba7f163c4a11628f55a4df523b3ef60405160405180910390a45050565b600080600080611f408660000186612253565b915091508160001c8160001c8090509350935050509250929050565b6000611f6f846000018460001b846122d6565b60001c90509392505050565b6000611f8982600001612367565b9050919050565b611f9b848484611a34565b611fa784848484612378565b611fe6576040517f08c379a0000000000000000000000000000000000000000000000000000000008152600401611fdd9061396f565b60405180910390fd5b50505050565b60606000821415612034576040518060400160405280600181526020017f3000000000000000000000000000000000000000000000000000000000000000815250905061212e565b600082905060005b6000821461205e578080600101915050600a828161205657fe5b04915061203c565b60608167ffffffffffffffff8111801561207757600080fd5b506040519080825280601f01601f1916602001820160405280156120aa5781602001600182028036833780820191505090505b50905060006001830390508593505b6000841461212657600a84816120cb57fe5b0660300160f81b828280600190039350815181106120e557fe5b60200101907effffffffffffffffffffffffffffffffffffffffffffffffffffffffffffff1916908160001a905350600a848161211e57fe5b0493506120b9565b819450505050505b919050565b6000612145836000018360001b6124dc565b905092915050565b600081600001805490509050919050565b505050565b6000612175836000018360001b6124ff565b905092915050565b600061218f836000018360001b6125e7565b905092915050565b60006121c3846000018460001b8473ffffffffffffffffffffffffffffffffffffffff1660001b612657565b90509392505050565b600081836000018054905011612217576040517f08c379a000000000000000000000000000000000000000000000000000000000815260040161220e9061394f565b60405180910390fd5b82600001828154811061222657fe5b9060005260206000200154905092915050565b600061224b836000018360001b612733565b905092915050565b6000808284600001805490501161229f576040517f08c379a000000000000000000000000000000000000000000000000000000000815260040161229690613a8f565b60405180910390fd5b60008460000184815481106122b057fe5b906000526020600020906002020190508060000154816001015492509250509250929050565b60008084600101600085815260200190815260200160002054905060008114158390612338576040517f08c379a000000000000000000000000000000000000000000000000000000000815260040161232f919061392d565b60405180910390fd5b5084600001600182038154811061234b57fe5b9060005260206000209060020201600101549150509392505050565b600081600001805490509050919050565b60006123998473ffffffffffffffffffffffffffffffffffffffff1661284c565b6123a657600190506124d4565b606061246d63150b7a0260e01b6123bb611880565b8887876040516024016123d194939291906138a4565b604051602081830303815290604052907bffffffffffffffffffffffffffffffffffffffffffffffffffffffff19166020820180517bffffffffffffffffffffffffffffffffffffffffffffffffffffffff8381831617835250505050604051806060016040528060328152602001613e80603291398773ffffffffffffffffffffffffffffffffffffffff1661285f9092919063ffffffff16565b90506000818060200190518101906124859190612e85565b905063150b7a0260e01b7bffffffffffffffffffffffffffffffffffffffffffffffffffffffff1916817bffffffffffffffffffffffffffffffffffffffffffffffffffffffff191614925050505b949350505050565b600080836001016000848152602001908152602001600020541415905092915050565b600080836001016000848152602001908152602001600020549050600081146125db576000600182039050600060018660000180549050039050600086600001828154811061254a57fe5b906000526020600020015490508087600001848154811061256757fe5b906000526020600020018190555060018301876001016000838152602001908152602001600020819055508660000180548061259f57fe5b600190038181906000526020600020016000905590558660010160008781526020019081526020016000206000905560019450505050506125e1565b60009150505b92915050565b60006125f38383612877565b61264c578260000182908060018154018082558091505060019003906000526020600020016000909190919091505582600001805490508360010160008481526020019081526020016000208190555060019050612651565b600090505b92915050565b60008084600101600085815260200190815260200160002054905060008114156126fe5784600001604051806040016040528086815260200185815250908060018154018082558091505060019003906000526020600020906002020160009091909190915060008201518160000155602082015181600101555050846000018054905085600101600086815260200190815260200160002081905550600191505061272c565b8285600001600183038154811061271157fe5b90600052602060002090600202016001018190555060009150505b9392505050565b60008083600101600084815260200190815260200160002054905060008114612840576000600182039050600060018660000180549050039050600086600001828154811061277e57fe5b906000526020600020906002020190508087600001848154811061279e57fe5b90600052602060002090600202016000820154816000015560018201548160010155905050600183018760010160008360000154815260200190815260200160002081905550866000018054806127f157fe5b6001900381819060005260206000209060020201600080820160009055600182016000905550509055866001016000878152602001908152602001600020600090556001945050505050612846565b60009150505b92915050565b600080823b905060008111915050919050565b606061286e848460008561289a565b90509392505050565b600080836001016000848152602001908152602001600020541415905092915050565b6060824710156128df576040517f08c379a00000000000000000000000000000000000000000000000000000000081526004016128d690613a0f565b60405180910390fd5b6128e88561284c565b612927576040517f08c379a000000000000000000000000000000000000000000000000000000000815260040161291e90613b8f565b60405180910390fd5b600060608673ffffffffffffffffffffffffffffffffffffffff168587604051612951919061384e565b60006040518083038185875af1925050503d806000811461298e576040519150601f19603f3d011682016040523d82523d6000602084013e612993565b606091505b50915091506129a38282866129af565b92505050949350505050565b606083156129bf57829050612a0f565b6000835111156129d25782518084602001fd5b816040517f08c379a0000000000000000000000000000000000000000000000000000000008152600401612a06919061392d565b60405180910390fd5b9392505050565b60405180606001604052806000815260200160608152602001600061ffff1681525090565b828054600181600116156101000203166002900490600052602060002090601f016020900481019282601f10612a7c57805160ff1916838001178555612aaa565b82800160010185558215612aaa579182015b82811115612aa9578251825591602001919060010190612a8e565b5b509050612ab79190612b03565b5090565b50805460018160011615610100020316600290046000825580601f10612ae15750612b00565b601f016020900490600052602060002090810190612aff9190612b03565b5b50565b612b2591905b80821115612b21576000816000905550600101612b09565b5090565b90565b600081359050612b3781613e0c565b92915050565b600081359050612b4c81613e23565b92915050565b600081359050612b6181613e3a565b92915050565b600081519050612b7681613e3a565b92915050565b600082601f830112612b8d57600080fd5b8135612ba0612b9b82613c35565b613c08565b91508082526020830160208301858383011115612bbc57600080fd5b612bc7838284613db9565b50505092915050565b600082601f830112612be157600080fd5b8135612bf4612bef82613c61565b613c08565b91508082526020830160208301858383011115612c1057600080fd5b612c1b838284613db9565b50505092915050565b600081359050612c3381613e51565b92915050565b600081359050612c4881613e68565b92915050565b600060208284031215612c6057600080fd5b6000612c6e84828501612b28565b91505092915050565b60008060408385031215612c8a57600080fd5b6000612c9885828601612b28565b9250506020612ca985828601612b28565b9150509250929050565b600080600060608486031215612cc857600080fd5b6000612cd686828701612b28565b9350506020612ce786828701612b28565b9250506040612cf886828701612c39565b9150509250925092565b60008060008060808587031215612d1857600080fd5b6000612d2687828801612b28565b9450506020612d3787828801612b28565b9350506040612d4887828801612c39565b925050606085013567ffffffffffffffff811115612d6557600080fd5b612d7187828801612b7c565b91505092959194509250565b60008060408385031215612d9057600080fd5b6000612d9e85828601612b28565b9250506020612daf85828601612b3d565b9150509250929050565b600080600060608486031215612dce57600080fd5b6000612ddc86828701612b28565b935050602084013567ffffffffffffffff811115612df957600080fd5b612e0586828701612bd0565b9250506040612e1686828701612c24565b9150509250925092565b60008060408385031215612e3357600080fd5b6000612e4185828601612b28565b9250506020612e5285828601612c39565b9150509250929050565b600060208284031215612e6e57600080fd5b6000612e7c84828501612b52565b91505092915050565b600060208284031215612e9757600080fd5b6000612ea584828501612b67565b91505092915050565b60008060408385031215612ec157600080fd5b600083013567ffffffffffffffff811115612edb57600080fd5b612ee785828601612bd0565b9250506020612ef885828601612b28565b9150509250929050565b600060208284031215612f1457600080fd5b6000612f2284828501612c39565b91505092915050565b6000612f3783836137c2565b905092915050565b612f4881613d37565b82525050565b612f5781613d25565b82525050565b6000612f6882613c9d565b612f728185613ccb565b935083602082028501612f8485613c8d565b8060005b85811015612fc05784840389528151612fa18582612f2b565b9450612fac83613cbe565b925060208a01995050600181019050612f88565b50829750879550505050505092915050565b612fdb81613d49565b82525050565b6000612fec82613ca8565b612ff68185613cdc565b9350613006818560208601613dc8565b61300f81613dfb565b840191505092915050565b600061302582613ca8565b61302f8185613ced565b935061303f818560208601613dc8565b80840191505092915050565b600061305682613cb3565b6130608185613cf8565b9350613070818560208601613dc8565b61307981613dfb565b840191505092915050565b600061308f82613cb3565b6130998185613d09565b93506130a9818560208601613dc8565b6130b281613dfb565b840191505092915050565b60006130c882613cb3565b6130d28185613d1a565b93506130e2818560208601613dc8565b80840191505092915050565b60006130fb602283613d09565b91507f456e756d657261626c655365743a20696e646578206f7574206f6620626f756e60008301527f64730000000000000000000000000000000000000000000000000000000000006020830152604082019050919050565b6000613161603283613d09565b91507f4552433732313a207472616e7366657220746f206e6f6e20455243373231526560008301527f63656976657220696d706c656d656e74657200000000000000000000000000006020830152604082019050919050565b60006131c7602683613d09565b91507f4f776e61626c653a206e6577206f776e657220697320746865207a65726f206160008301527f64647265737300000000000000000000000000000000000000000000000000006020830152604082019050919050565b600061322d601c83613d09565b91507f4552433732313a20746f6b656e20616c7265616479206d696e746564000000006000830152602082019050919050565b600061326d602483613d09565b91507f4552433732313a207472616e7366657220746f20746865207a65726f2061646460008301527f72657373000000000000000000000000000000000000000000000000000000006020830152604082019050919050565b60006132d3601983613d09565b91507f4552433732313a20617070726f766520746f2063616c6c6572000000000000006000830152602082019050919050565b6000613313602683613d09565b91507f416464726573733a20696e73756666696369656e742062616c616e636520666f60008301527f722063616c6c00000000000000000000000000000000000000000000000000006020830152604082019050919050565b6000613379602c83613d09565b91507f4552433732313a206f70657261746f7220717565727920666f72206e6f6e657860008301527f697374656e7420746f6b656e00000000000000000000000000000000000000006020830152604082019050919050565b60006133df603883613d09565b91507f4552433732313a20617070726f76652063616c6c6572206973206e6f74206f7760008301527f6e6572206e6f7220617070726f76656420666f7220616c6c00000000000000006020830152604082019050919050565b6000613445602a83613d09565b91507f4552433732313a2062616c616e636520717565727920666f7220746865207a6560008301527f726f2061646472657373000000000000000000000000000000000000000000006020830152604082019050919050565b60006134ab602283613d09565b91507f456e756d657261626c654d61703a20696e646578206f7574206f6620626f756e60008301527f64730000000000000000000000000000000000000000000000000000000000006020830152604082019050919050565b6000613511602083613d09565b91507f4552433732313a206d696e7420746f20746865207a65726f20616464726573736000830152602082019050919050565b6000613551602c83613d09565b91507f4552433732313a20617070726f76656420717565727920666f72206e6f6e657860008301527f697374656e7420746f6b656e00000000000000000000000000000000000000006020830152604082019050919050565b60006135b7602083613d09565b91507f4f776e61626c653a2063616c6c6572206973206e6f7420746865206f776e65726000830152602082019050919050565b60006135f7602983613d09565b91507f4552433732313a207472616e73666572206f6620746f6b656e2074686174206960008301527f73206e6f74206f776e00000000000000000000000000000000000000000000006020830152604082019050919050565b600061365d602f83613d09565b91507f4552433732314d657461646174613a2055524920717565727920666f72206e6f60008301527f6e6578697374656e7420746f6b656e00000000000000000000000000000000006020830152604082019050919050565b60006136c3602183613d09565b91507f4552433732313a20617070726f76616c20746f2063757272656e74206f776e6560008301527f72000000000000000000000000000000000000000000000000000000000000006020830152604082019050919050565b6000613729603183613d09565b91507f4552433732313a207472616e736665722063616c6c6572206973206e6f74206f60008301527f776e6572206e6f7220617070726f7665640000000000000000000000000000006020830152604082019050919050565b600061378f601d83613d09565b91507f416464726573733a2063616c6c20746f206e6f6e2d636f6e74726163740000006000830152602082019050919050565b60006060830160008301516137da6000860182613830565b50602083015184820360208601526137f2828261304b565b91505060408301516138076040860182613812565b508091505092915050565b61381b81613d81565b82525050565b61382a81613d81565b82525050565b61383981613daf565b82525050565b61384881613daf565b82525050565b600061385a828461301a565b915081905092915050565b600061387182856130bd565b915061387d82846130bd565b91508190509392505050565b600060208201905061389e6000830184612f4e565b92915050565b60006080820190506138b96000830187612f3f565b6138c66020830186612f4e565b6138d3604083018561383f565b81810360608301526138e58184612fe1565b905095945050505050565b6000602082019050818103600083015261390a8184612f5d565b905092915050565b60006020820190506139276000830184612fd2565b92915050565b600060208201905081810360008301526139478184613084565b905092915050565b60006020820190508181036000830152613968816130ee565b9050919050565b6000602082019050818103600083015261398881613154565b9050919050565b600060208201905081810360008301526139a8816131ba565b9050919050565b600060208201905081810360008301526139c881613220565b9050919050565b600060208201905081810360008301526139e881613260565b9050919050565b60006020820190508181036000830152613a08816132c6565b9050919050565b60006020820190508181036000830152613a2881613306565b9050919050565b60006020820190508181036000830152613a488161336c565b9050919050565b60006020820190508181036000830152613a68816133d2565b9050919050565b60006020820190508181036000830152613a8881613438565b9050919050565b60006020820190508181036000830152613aa88161349e565b9050919050565b60006020820190508181036000830152613ac881613504565b9050919050565b60006020820190508181036000830152613ae881613544565b9050919050565b60006020820190508181036000830152613b08816135aa565b9050919050565b60006020820190508181036000830152613b28816135ea565b9050919050565b60006020820190508181036000830152613b4881613650565b9050919050565b60006020820190508181036000830152613b68816136b6565b9050919050565b60006020820190508181036000830152613b888161371c565b9050919050565b60006020820190508181036000830152613ba881613782565b9050919050565b6000602082019050613bc4600083018461383f565b92915050565b6000606082019050613bdf600083018661383f565b8181036020830152613bf18185613084565b9050613c006040830184613821565b949350505050565b6000604051905081810181811067ffffffffffffffff82111715613c2b57600080fd5b8060405250919050565b600067ffffffffffffffff821115613c4c57600080fd5b601f19601f8301169050602081019050919050565b600067ffffffffffffffff821115613c7857600080fd5b601f19601f8301169050602081019050919050565b6000819050602082019050919050565b600081519050919050565b600081519050919050565b600081519050919050565b6000602082019050919050565b600082825260208201905092915050565b600082825260208201905092915050565b600081905092915050565b600082825260208201905092915050565b600082825260208201905092915050565b600081905092915050565b6000613d3082613d8f565b9050919050565b6000613d4282613d8f565b9050919050565b60008115159050919050565b60007fffffffff0000000000000000000000000000000000000000000000000000000082169050919050565b600061ffff82169050919050565b600073ffffffffffffffffffffffffffffffffffffffff82169050919050565b6000819050919050565b82818337600083830152505050565b60005b83811015613de6578082015181840152602081019050613dcb565b83811115613df5576000848401525b50505050565b6000601f19601f8301169050919050565b613e1581613d25565b8114613e2057600080fd5b50565b613e2c81613d49565b8114613e3757600080fd5b50565b613e4381613d55565b8114613e4e57600080fd5b50565b613e5a81613d81565b8114613e6557600080fd5b50565b613e7181613daf565b8114613e7c57600080fd5b5056fe4552433732313a207472616e7366657220746f206e6f6e20455243373231526563656976657220696d706c656d656e7465724552433732313a206f776e657220717565727920666f72206e6f6e6578697374656e7420746f6b656ea264697066735822122072512c7c9309631f0f19706a2c73d0cc41644cfaf22f6d5cdd8deebfa47feeac64736f6c63430006060033",
  "immutableReferences": {},
  "source": "// contracts/GameItem.sol\n// SPDX-License-Identifier: MIT\npragma solidity ^0.6.0;\n\nimport \"@openzeppelin/contracts/token/ERC721/ERC721.sol\";\nimport \"@openzeppelin/contracts/access/Ownable.sol\";\n\npragma experimental ABIEncoderV2;\n\ncontract Bonsai is ERC721, Ownable {\n    struct Plant {\n        uint256 id;\n        string name;\n        uint16 price;\n    }\n\n    mapping(address => string) public plantDict;\n\n    Plant[] public plants;\n\n    constructor() public ERC721(\"Bonsai\", \"BS\") {}\n\n    function setPlantDict(string memory _plant, address _address)\n        public\n        onlyOwner\n    {\n        plantDict[_address] = _plant;\n    }\n\n    function mint(\n        address _to,\n        string memory _name,\n        uint16 _price\n    ) public onlyOwner {\n        uint256 countPlant = plants.length;\n        plants.push(Plant(countPlant, _name, _price));\n        _mint(_to, countPlant);\n    }\n\n    function getPlantsByOwner(address _owner)\n        public\n        view\n        returns (Plant[] memory)\n    {\n        uint256 countPlant = balanceOf(_owner);\n        Plant[] memory result = new Plant[](countPlant);\n        uint256 counter = 0;\n        for (uint256 i = 0; i < plants.length; i++) {\n            if (_exists(i) && ownerOf(i) == _owner) {\n                result[counter] = plants[i];\n                counter++;\n                if (counter == countPlant) {\n                    break;\n                }\n            }\n        }\n\n        return result;\n    }\n\n    function getMyPlant() public view returns (Plant[] memory) {\n        return getPlantsByOwner(msg.sender);\n    }\n\n    function burn(uint256 _tokenId) public onlyOwnerOf(_tokenId) {\n        _burn(_tokenId);\n    }\n\n    modifier onlyOwnerOf(uint256 _tokenId) {\n        require(msg.sender == ownerOf(_tokenId));\n        _;\n    }\n}\n",
  "sourcePath": "/Users/nguyenthanhbinh/Lab/teko/nft/contracts/Bonsai.sol",
  "compiler": {
    "name": "solc",
    "version": "0.6.6+commit.6c089d02.Emscripten.clang"
  },
  "schemaVersion": "3.4.1",
  "updatedAt": "2021-06-07T19:15:07.137Z",
  "networkType": "ethereum",
  "devdoc": {
    "methods": {
      "approve(address,uint256)": {
        "details": "See {IERC721-approve}."
      },
      "balanceOf(address)": {
        "details": "See {IERC721-balanceOf}."
      },
      "baseURI()": {
        "details": "Returns the base URI set via {_setBaseURI}. This will be automatically added as a prefix in {tokenURI} to each token's URI, or to the token ID if no specific URI is set for that token ID."
      },
      "getApproved(uint256)": {
        "details": "See {IERC721-getApproved}."
      },
      "isApprovedForAll(address,address)": {
        "details": "See {IERC721-isApprovedForAll}."
      },
      "name()": {
        "details": "See {IERC721Metadata-name}."
      },
      "owner()": {
        "details": "Returns the address of the current owner."
      },
      "ownerOf(uint256)": {
        "details": "See {IERC721-ownerOf}."
      },
      "renounceOwnership()": {
        "details": "Leaves the contract without owner. It will not be possible to call `onlyOwner` functions anymore. Can only be called by the current owner.     * NOTE: Renouncing ownership will leave the contract without an owner, thereby removing any functionality that is only available to the owner."
      },
      "safeTransferFrom(address,address,uint256)": {
        "details": "See {IERC721-safeTransferFrom}."
      },
      "safeTransferFrom(address,address,uint256,bytes)": {
        "details": "See {IERC721-safeTransferFrom}."
      },
      "setApprovalForAll(address,bool)": {
        "details": "See {IERC721-setApprovalForAll}."
      },
      "supportsInterface(bytes4)": {
        "details": "See {IERC165-supportsInterface}.     * Time complexity O(1), guaranteed to always use less than 30 000 gas."
      },
      "symbol()": {
        "details": "See {IERC721Metadata-symbol}."
      },
      "tokenByIndex(uint256)": {
        "details": "See {IERC721Enumerable-tokenByIndex}."
      },
      "tokenOfOwnerByIndex(address,uint256)": {
        "details": "See {IERC721Enumerable-tokenOfOwnerByIndex}."
      },
      "tokenURI(uint256)": {
        "details": "See {IERC721Metadata-tokenURI}."
      },
      "totalSupply()": {
        "details": "See {IERC721Enumerable-totalSupply}."
      },
      "transferFrom(address,address,uint256)": {
        "details": "See {IERC721-transferFrom}."
      },
      "transferOwnership(address)": {
        "details": "Transfers ownership of the contract to a new account (`newOwner`). Can only be called by the current owner."
      }
    }
  },
  "userdoc": {
    "methods": {}
  }
}