{
  "contractName": "Oxygen",
  "abi": [
    {
      "inputs": [
        {
          "internalType": "uint256",
          "name": "amountOxygen",
          "type": "uint256"
        },
        {
          "internalType": "uint256",
          "name": "scopeTime",
          "type": "uint256"
        }
      ],
      "stateMutability": "nonpayable",
      "type": "constructor"
    },
    {
      "anonymous": false,
      "inputs": [
        {
          "indexed": true,
          "internalType": "address",
          "name": "owner",
          "type": "address"
        },
        {
          "indexed": true,
          "internalType": "address",
          "name": "spender",
          "type": "address"
        },
        {
          "indexed": false,
          "internalType": "uint256",
          "name": "value",
          "type": "uint256"
        }
      ],
      "name": "Approval",
      "type": "event"
    },
    {
      "anonymous": false,
      "inputs": [
        {
          "indexed": true,
          "internalType": "address",
          "name": "previousOwner",
          "type": "address"
        },
        {
          "indexed": true,
          "internalType": "address",
          "name": "newOwner",
          "type": "address"
        }
      ],
      "name": "OwnershipTransferred",
      "type": "event"
    },
    {
      "anonymous": false,
      "inputs": [
        {
          "indexed": true,
          "internalType": "address",
          "name": "from",
          "type": "address"
        },
        {
          "indexed": true,
          "internalType": "address",
          "name": "to",
          "type": "address"
        },
        {
          "indexed": false,
          "internalType": "uint256",
          "name": "value",
          "type": "uint256"
        }
      ],
      "name": "Transfer",
      "type": "event"
    },
    {
      "inputs": [
        {
          "internalType": "address",
          "name": "",
          "type": "address"
        }
      ],
      "name": "airDropped",
      "outputs": [
        {
          "internalType": "bool",
          "name": "",
          "type": "bool"
        }
      ],
      "stateMutability": "view",
      "type": "function",
      "constant": true
    },
    {
      "inputs": [
        {
          "internalType": "address",
          "name": "owner",
          "type": "address"
        },
        {
          "internalType": "address",
          "name": "spender",
          "type": "address"
        }
      ],
      "name": "allowance",
      "outputs": [
        {
          "internalType": "uint256",
          "name": "",
          "type": "uint256"
        }
      ],
      "stateMutability": "view",
      "type": "function",
      "constant": true
    },
    {
      "inputs": [],
      "name": "amountOxygenReceiveOneTime",
      "outputs": [
        {
          "internalType": "uint256",
          "name": "",
          "type": "uint256"
        }
      ],
      "stateMutability": "view",
      "type": "function",
      "constant": true
    },
    {
      "inputs": [
        {
          "internalType": "address",
          "name": "spender",
          "type": "address"
        },
        {
          "internalType": "uint256",
          "name": "amount",
          "type": "uint256"
        }
      ],
      "name": "approve",
      "outputs": [
        {
          "internalType": "bool",
          "name": "",
          "type": "bool"
        }
      ],
      "stateMutability": "nonpayable",
      "type": "function"
    },
    {
      "inputs": [
        {
          "internalType": "address",
          "name": "account",
          "type": "address"
        }
      ],
      "name": "balanceOf",
      "outputs": [
        {
          "internalType": "uint256",
          "name": "",
          "type": "uint256"
        }
      ],
      "stateMutability": "view",
      "type": "function",
      "constant": true
    },
    {
      "inputs": [],
      "name": "decimals",
      "outputs": [
        {
          "internalType": "uint8",
          "name": "",
          "type": "uint8"
        }
      ],
      "stateMutability": "view",
      "type": "function",
      "constant": true
    },
    {
      "inputs": [
        {
          "internalType": "address",
          "name": "spender",
          "type": "address"
        },
        {
          "internalType": "uint256",
          "name": "subtractedValue",
          "type": "uint256"
        }
      ],
      "name": "decreaseAllowance",
      "outputs": [
        {
          "internalType": "bool",
          "name": "",
          "type": "bool"
        }
      ],
      "stateMutability": "nonpayable",
      "type": "function"
    },
    {
      "inputs": [
        {
          "internalType": "address",
          "name": "spender",
          "type": "address"
        },
        {
          "internalType": "uint256",
          "name": "addedValue",
          "type": "uint256"
        }
      ],
      "name": "increaseAllowance",
      "outputs": [
        {
          "internalType": "bool",
          "name": "",
          "type": "bool"
        }
      ],
      "stateMutability": "nonpayable",
      "type": "function"
    },
    {
      "inputs": [
        {
          "internalType": "address",
          "name": "",
          "type": "address"
        }
      ],
      "name": "lastTimeReceiveOxygen",
      "outputs": [
        {
          "internalType": "uint256",
          "name": "",
          "type": "uint256"
        }
      ],
      "stateMutability": "view",
      "type": "function",
      "constant": true
    },
    {
      "inputs": [],
      "name": "name",
      "outputs": [
        {
          "internalType": "string",
          "name": "",
          "type": "string"
        }
      ],
      "stateMutability": "view",
      "type": "function",
      "constant": true
    },
    {
      "inputs": [],
      "name": "owner",
      "outputs": [
        {
          "internalType": "address",
          "name": "",
          "type": "address"
        }
      ],
      "stateMutability": "view",
      "type": "function",
      "constant": true
    },
    {
      "inputs": [],
      "name": "renounceOwnership",
      "outputs": [],
      "stateMutability": "nonpayable",
      "type": "function"
    },
    {
      "inputs": [],
      "name": "scopeTimeReceiveOxygen",
      "outputs": [
        {
          "internalType": "uint256",
          "name": "",
          "type": "uint256"
        }
      ],
      "stateMutability": "view",
      "type": "function",
      "constant": true
    },
    {
      "inputs": [],
      "name": "symbol",
      "outputs": [
        {
          "internalType": "string",
          "name": "",
          "type": "string"
        }
      ],
      "stateMutability": "view",
      "type": "function",
      "constant": true
    },
    {
      "inputs": [],
      "name": "totalSupply",
      "outputs": [
        {
          "internalType": "uint256",
          "name": "",
          "type": "uint256"
        }
      ],
      "stateMutability": "view",
      "type": "function",
      "constant": true
    },
    {
      "inputs": [
        {
          "internalType": "address",
          "name": "recipient",
          "type": "address"
        },
        {
          "internalType": "uint256",
          "name": "amount",
          "type": "uint256"
        }
      ],
      "name": "transfer",
      "outputs": [
        {
          "internalType": "bool",
          "name": "",
          "type": "bool"
        }
      ],
      "stateMutability": "nonpayable",
      "type": "function"
    },
    {
      "inputs": [
        {
          "internalType": "address",
          "name": "sender",
          "type": "address"
        },
        {
          "internalType": "address",
          "name": "recipient",
          "type": "address"
        },
        {
          "internalType": "uint256",
          "name": "amount",
          "type": "uint256"
        }
      ],
      "name": "transferFrom",
      "outputs": [
        {
          "internalType": "bool",
          "name": "",
          "type": "bool"
        }
      ],
      "stateMutability": "nonpayable",
      "type": "function"
    },
    {
      "inputs": [
        {
          "internalType": "address",
          "name": "newOwner",
          "type": "address"
        }
      ],
      "name": "transferOwnership",
      "outputs": [],
      "stateMutability": "nonpayable",
      "type": "function"
    },
    {
      "inputs": [
        {
          "internalType": "address",
          "name": "recipient",
          "type": "address"
        }
      ],
      "name": "airDrop",
      "outputs": [],
      "stateMutability": "nonpayable",
      "type": "function"
    },
    {
      "inputs": [
        {
          "internalType": "address",
          "name": "recipient",
          "type": "address"
        },
        {
          "internalType": "uint256",
          "name": "numberOfBonsai",
          "type": "uint256"
        }
      ],
      "name": "receiveOxygen",
      "outputs": [],
      "stateMutability": "nonpayable",
      "type": "function"
    },
    {
      "inputs": [],
      "name": "buyOxygen",
      "outputs": [],
      "stateMutability": "payable",
      "type": "function",
      "payable": true
    },
    {
      "inputs": [
        {
          "internalType": "uint8",
          "name": "tokenType",
          "type": "uint8"
        },
        {
          "internalType": "uint256",
          "name": "value",
          "type": "uint256"
        },
        {
          "internalType": "uint8",
          "name": "price",
          "type": "uint8"
        }
      ],
      "name": "buyOxygenWithERC20",
      "outputs": [
        {
          "internalType": "bool",
          "name": "",
          "type": "bool"
        }
      ],
      "stateMutability": "nonpayable",
      "type": "function"
    },
    {
      "inputs": [
        {
          "internalType": "uint256",
          "name": "value",
          "type": "uint256"
        }
      ],
      "name": "withDrawEther",
      "outputs": [],
      "stateMutability": "nonpayable",
      "type": "function"
    }
  ],
  "bytecode": "0x60806040527330b5068156688f818cea0874b580206dfe081a03600960006101000a81548173ffffffffffffffffffffffffffffffffffffffff021916908373ffffffffffffffffffffffffffffffffffffffff1602179055507340c9885aa8213b40e3e8a0a9aae69d4fb5915a3a600a60006101000a81548173ffffffffffffffffffffffffffffffffffffffff021916908373ffffffffffffffffffffffffffffffffffffffff16021790555073af540ca83c7da3181778e3d1e11a6137e7e0085b600b60006101000a81548173ffffffffffffffffffffffffffffffffffffffff021916908373ffffffffffffffffffffffffffffffffffffffff1602179055507320fe562d797a42dcb3399062ae9546cd06f63280600c60006101000a81548173ffffffffffffffffffffffffffffffffffffffff021916908373ffffffffffffffffffffffffffffffffffffffff16021790555073ad6d458402f60fd3bd25163575031acdce07538d600d60006101000a81548173ffffffffffffffffffffffffffffffffffffffff021916908373ffffffffffffffffffffffffffffffffffffffff160217905550348015620001ba57600080fd5b5060405162002cbd38038062002cbd83398181016040526040811015620001e057600080fd5b8101908080519060200190929190805190602001909291905050506040518060400160405280600681526020017f4f787967656e00000000000000000000000000000000000000000000000000008152506040518060400160405280600281526020017f4f5800000000000000000000000000000000000000000000000000000000000081525081600390805190602001906200027f92919062000386565b5080600490805190602001906200029892919062000386565b506012600560006101000a81548160ff021916908360ff16021790555050506000620002c96200037e60201b60201c565b905080600560016101000a81548173ffffffffffffffffffffffffffffffffffffffff021916908373ffffffffffffffffffffffffffffffffffffffff1602179055508073ffffffffffffffffffffffffffffffffffffffff16600073ffffffffffffffffffffffffffffffffffffffff167f8be0079c531659141344cd1fd0a4f28419497f9722a3daafe3b4186f6b6457e060405160405180910390a3508160128190555080601381905550505062000435565b600033905090565b828054600181600116156101000203166002900490600052602060002090601f016020900481019282601f10620003c957805160ff1916838001178555620003fa565b82800160010185558215620003fa579182015b82811115620003f9578251825591602001919060010190620003dc565b5b5090506200040991906200040d565b5090565b6200043291905b808211156200042e57600081600090555060010162000414565b5090565b90565b61287880620004456000396000f3fe6080604052600436106101405760003560e01c80638da5cb5b116100b6578063a9059cbb1161006f578063a9059cbb1461076c578063c7543860146107df578063caad5b18146107e9578063cd18d5a414610824578063dd62ed3e14610875578063f2fde38b146108fa57610140565b80638da5cb5b146104e157806395d89b41146105385780639f2ba9b6146105c8578063a3f37e3d14610635578063a457c2d714610690578063a5fef4d11461070357610140565b8063313ce56711610108578063313ce5671461036b578063395093511461039c5780633c1cdf581461040f57806370a082311461043a578063715018a61461049f5780637a17d1a6146104b657610140565b806306fdde0314610145578063095ea7b3146101d55780630f8145d91461024857806318160ddd146102ad57806323b872dd146102d8575b600080fd5b34801561015157600080fd5b5061015a61094b565b6040518080602001828103825283818151815260200191508051906020019080838360005b8381101561019a57808201518184015260208101905061017f565b50505050905090810190601f1680156101c75780820380516001836020036101000a031916815260200191505b509250505060405180910390f35b3480156101e157600080fd5b5061022e600480360360408110156101f857600080fd5b81019080803573ffffffffffffffffffffffffffffffffffffffff169060200190929190803590602001909291905050506109ed565b604051808215151515815260200191505060405180910390f35b34801561025457600080fd5b506102976004803603602081101561026b57600080fd5b81019080803573ffffffffffffffffffffffffffffffffffffffff169060200190929190505050610a0b565b6040518082815260200191505060405180910390f35b3480156102b957600080fd5b506102c2610a23565b6040518082815260200191505060405180910390f35b3480156102e457600080fd5b50610351600480360360608110156102fb57600080fd5b81019080803573ffffffffffffffffffffffffffffffffffffffff169060200190929190803573ffffffffffffffffffffffffffffffffffffffff16906020019092919080359060200190929190505050610a2d565b604051808215151515815260200191505060405180910390f35b34801561037757600080fd5b50610380610b06565b604051808260ff1660ff16815260200191505060405180910390f35b3480156103a857600080fd5b506103f5600480360360408110156103bf57600080fd5b81019080803573ffffffffffffffffffffffffffffffffffffffff16906020019092919080359060200190929190505050610b1d565b604051808215151515815260200191505060405180910390f35b34801561041b57600080fd5b50610424610bd0565b6040518082815260200191505060405180910390f35b34801561044657600080fd5b506104896004803603602081101561045d57600080fd5b81019080803573ffffffffffffffffffffffffffffffffffffffff169060200190929190505050610bd6565b6040518082815260200191505060405180910390f35b3480156104ab57600080fd5b506104b4610c1e565b005b3480156104c257600080fd5b506104cb610d8e565b6040518082815260200191505060405180910390f35b3480156104ed57600080fd5b506104f6610d94565b604051808273ffffffffffffffffffffffffffffffffffffffff1673ffffffffffffffffffffffffffffffffffffffff16815260200191505060405180910390f35b34801561054457600080fd5b5061054d610dbe565b6040518080602001828103825283818151815260200191508051906020019080838360005b8381101561058d578082015181840152602081019050610572565b50505050905090810190601f1680156105ba5780820380516001836020036101000a031916815260200191505b509250505060405180910390f35b3480156105d457600080fd5b5061061b600480360360608110156105eb57600080fd5b81019080803560ff16906020019092919080359060200190929190803560ff169060200190929190505050610e60565b604051808215151515815260200191505060405180910390f35b34801561064157600080fd5b5061068e6004803603604081101561065857600080fd5b81019080803573ffffffffffffffffffffffffffffffffffffffff16906020019092919080359060200190929190505050611225565b005b34801561069c57600080fd5b506106e9600480360360408110156106b357600080fd5b81019080803573ffffffffffffffffffffffffffffffffffffffff169060200190929190803590602001909291905050506114f9565b604051808215151515815260200191505060405180910390f35b34801561070f57600080fd5b506107526004803603602081101561072657600080fd5b81019080803573ffffffffffffffffffffffffffffffffffffffff1690602001909291905050506115c6565b604051808215151515815260200191505060405180910390f35b34801561077857600080fd5b506107c56004803603604081101561078f57600080fd5b81019080803573ffffffffffffffffffffffffffffffffffffffff169060200190929190803590602001909291905050506115e6565b604051808215151515815260200191505060405180910390f35b6107e7611604565b005b3480156107f557600080fd5b506108226004803603602081101561080c57600080fd5b8101908080359060200190929190505050611748565b005b34801561083057600080fd5b506108736004803603602081101561084757600080fd5b81019080803573ffffffffffffffffffffffffffffffffffffffff1690602001909291905050506118c3565b005b34801561088157600080fd5b506108e46004803603604081101561089857600080fd5b81019080803573ffffffffffffffffffffffffffffffffffffffff169060200190929190803573ffffffffffffffffffffffffffffffffffffffff169060200190929190505050611b1e565b6040518082815260200191505060405180910390f35b34801561090657600080fd5b506109496004803603602081101561091d57600080fd5b81019080803573ffffffffffffffffffffffffffffffffffffffff169060200190929190505050611ba5565b005b606060038054600181600116156101000203166002900480601f0160208091040260200160405190810160405280929190818152602001828054600181600116156101000203166002900480156109e35780601f106109b8576101008083540402835291602001916109e3565b820191906000526020600020905b8154815290600101906020018083116109c657829003601f168201915b5050505050905090565b6000610a016109fa611d9a565b8484611da2565b6001905092915050565b60106020528060005260406000206000915090505481565b6000600254905090565b6000610a3a848484611f99565b610afb84610a46611d9a565b610af6856040518060600160405280602881526020016127ad60289139600160008b73ffffffffffffffffffffffffffffffffffffffff1673ffffffffffffffffffffffffffffffffffffffff1681526020019081526020016000206000610aac611d9a565b73ffffffffffffffffffffffffffffffffffffffff1673ffffffffffffffffffffffffffffffffffffffff1681526020019081526020016000205461225a9092919063ffffffff16565b611da2565b600190509392505050565b6000600560009054906101000a900460ff16905090565b6000610bc6610b2a611d9a565b84610bc18560016000610b3b611d9a565b73ffffffffffffffffffffffffffffffffffffffff1673ffffffffffffffffffffffffffffffffffffffff16815260200190815260200160002060008973ffffffffffffffffffffffffffffffffffffffff1673ffffffffffffffffffffffffffffffffffffffff1681526020019081526020016000205461231490919063ffffffff16565b611da2565b6001905092915050565b60135481565b60008060008373ffffffffffffffffffffffffffffffffffffffff1673ffffffffffffffffffffffffffffffffffffffff168152602001908152602001600020549050919050565b610c26611d9a565b73ffffffffffffffffffffffffffffffffffffffff16610c44610d94565b73ffffffffffffffffffffffffffffffffffffffff1614610ccd576040517f08c379a00000000000000000000000000000000000000000000000000000000081526004018080602001828103825260208152602001807f4f776e61626c653a2063616c6c6572206973206e6f7420746865206f776e657281525060200191505060405180910390fd5b600073ffffffffffffffffffffffffffffffffffffffff16600560019054906101000a900473ffffffffffffffffffffffffffffffffffffffff1673ffffffffffffffffffffffffffffffffffffffff167f8be0079c531659141344cd1fd0a4f28419497f9722a3daafe3b4186f6b6457e060405160405180910390a36000600560016101000a81548173ffffffffffffffffffffffffffffffffffffffff021916908373ffffffffffffffffffffffffffffffffffffffff160217905550565b60125481565b6000600560019054906101000a900473ffffffffffffffffffffffffffffffffffffffff16905090565b606060048054600181600116156101000203166002900480601f016020809104026020016040519081016040528092919081815260200182805460018160011615610100020316600290048015610e565780601f10610e2b57610100808354040283529160200191610e56565b820191906000526020600020905b815481529060010190602001808311610e3957829003601f168201915b5050505050905090565b600080610e6b610d94565b90506000809050600080905060018760ff16141561101757600e60009054906101000a900473ffffffffffffffffffffffffffffffffffffffff1673ffffffffffffffffffffffffffffffffffffffff166323b872dd3385896040518463ffffffff1660e01b8152600401808473ffffffffffffffffffffffffffffffffffffffff1673ffffffffffffffffffffffffffffffffffffffff1681526020018373ffffffffffffffffffffffffffffffffffffffff1673ffffffffffffffffffffffffffffffffffffffff1681526020018281526020019350505050602060405180830381600087803b158015610f6057600080fd5b505af1158015610f74573d6000803e3d6000fd5b505050506040513d6020811015610f8a57600080fd5b810190808051906020019092919050505091506001151582151514156110065760018560ff161415610fc757683635c9adc5dea000009050611001565b60058560ff161415610fe55769021e19e0c9bab24000009050611000565b600a8560ff161415610fff5769152d02c7e14af680000090505b5b5b611012565b6000935050505061121e565b6111b4565b60028760ff1614156111b357600f60009054906101000a900473ffffffffffffffffffffffffffffffffffffffff1673ffffffffffffffffffffffffffffffffffffffff166323b872dd3385896040518463ffffffff1660e01b8152600401808473ffffffffffffffffffffffffffffffffffffffff1673ffffffffffffffffffffffffffffffffffffffff1681526020018373ffffffffffffffffffffffffffffffffffffffff1673ffffffffffffffffffffffffffffffffffffffff1681526020018281526020019350505050602060405180830381600087803b15801561110057600080fd5b505af1158015611114573d6000803e3d6000fd5b505050506040513d602081101561112a57600080fd5b810190808051906020019092919050505091506001151582151514156111a65760018560ff16141561116757683635c9adc5dea0000090506111a1565b60058560ff1614156111855769021e19e0c9bab240000090506111a0565b600a8560ff16141561119f5769152d02c7e14af680000090505b5b5b6111b2565b6000935050505061121e565b5b5b6001601160003373ffffffffffffffffffffffffffffffffffffffff1673ffffffffffffffffffffffffffffffffffffffff16815260200190815260200160002060006101000a81548160ff021916908315150217905550611216338261239c565b600193505050505b9392505050565b61122d611d9a565b73ffffffffffffffffffffffffffffffffffffffff1661124b610d94565b73ffffffffffffffffffffffffffffffffffffffff16146112d4576040517f08c379a00000000000000000000000000000000000000000000000000000000081526004018080602001828103825260208152602001807f4f776e61626c653a2063616c6c6572206973206e6f7420746865206f776e657281525060200191505060405180910390fd5b6000601060008473ffffffffffffffffffffffffffffffffffffffff1673ffffffffffffffffffffffffffffffffffffffff168152602001908152602001600020549050600081141561136b5742601060008573ffffffffffffffffffffffffffffffffffffffff1673ffffffffffffffffffffffffffffffffffffffff16815260200190815260200160002081905550506114f5565b6000611380824261256390919063ffffffff16565b905060135481116113f9576040517f08c379a000000000000000000000000000000000000000000000000000000000815260040180806020018281038252601e8152602001807f4e6f7420656e6f7567682074696d6520746f2072656365697665204f7879000081525060200191505060405180910390fd5b6000611410601354836125e690919063ffffffff16565b9050600061143b61142c8660125461266f90919063ffffffff16565b8361266f90919063ffffffff16565b9050611447868261239c565b6114ad61145f8360135461266f90919063ffffffff16565b601060008973ffffffffffffffffffffffffffffffffffffffff1673ffffffffffffffffffffffffffffffffffffffff1681526020019081526020016000205461231490919063ffffffff16565b601060008873ffffffffffffffffffffffffffffffffffffffff1673ffffffffffffffffffffffffffffffffffffffff16815260200190815260200160002081905550505050505b5050565b60006115bc611506611d9a565b846115b78560405180606001604052806025815260200161281e6025913960016000611530611d9a565b73ffffffffffffffffffffffffffffffffffffffff1673ffffffffffffffffffffffffffffffffffffffff16815260200190815260200160002060008a73ffffffffffffffffffffffffffffffffffffffff1673ffffffffffffffffffffffffffffffffffffffff1681526020019081526020016000205461225a9092919063ffffffff16565b611da2565b6001905092915050565b60116020528060005260406000206000915054906101000a900460ff1681565b60006115fa6115f3611d9a565b8484611f99565b6001905092915050565b6000341161167a576040517f08c379a000000000000000000000000000000000000000000000000000000000815260040180806020018281038252601d8152602001807f416d6f756e742063616e206e6f74206c657373207468616e207a65726f00000081525060200191505060405180910390fd5b6000809050670de0b6b3a76400003414156116a15769021e19e0c9bab240000090506116e3565b674563918244f400003414156116c35769152d02c7e14af680000090506116e2565b678ac7230489e800003414156116e15769d3c21bcecceda100000090505b5b5b6001601160003373ffffffffffffffffffffffffffffffffffffffff1673ffffffffffffffffffffffffffffffffffffffff16815260200190815260200160002060006101000a81548160ff021916908315150217905550611745338261239c565b50565b611750611d9a565b73ffffffffffffffffffffffffffffffffffffffff1661176e610d94565b73ffffffffffffffffffffffffffffffffffffffff16146117f7576040517f08c379a00000000000000000000000000000000000000000000000000000000081526004018080602001828103825260208152602001807f4f776e61626c653a2063616c6c6572206973206e6f7420746865206f776e657281525060200191505060405180910390fd5b6000811180156118075750478111155b611879576040517f08c379a00000000000000000000000000000000000000000000000000000000081526004018080602001828103825260128152602001807f56616c7565206f7574206f662072616e6765000000000000000000000000000081525060200191505060405180910390fd5b3373ffffffffffffffffffffffffffffffffffffffff166108fc829081150290604051600060405180830381858888f193505050501580156118bf573d6000803e3d6000fd5b5050565b6118cb611d9a565b73ffffffffffffffffffffffffffffffffffffffff166118e9610d94565b73ffffffffffffffffffffffffffffffffffffffff1614611972576040517f08c379a00000000000000000000000000000000000000000000000000000000081526004018080602001828103825260208152602001807f4f776e61626c653a2063616c6c6572206973206e6f7420746865206f776e657281525060200191505060405180910390fd5b601160008273ffffffffffffffffffffffffffffffffffffffff1673ffffffffffffffffffffffffffffffffffffffff16815260200190815260200160002060009054906101000a900460ff1615611a32576040517f08c379a000000000000000000000000000000000000000000000000000000000815260040180806020018281038252601c8152602001807f54686973206164647265737320686173206169722064726f707065640000000081525060200191505060405180910390fd5b6000611a3d82610bd6565b14611ab0576040517f08c379a000000000000000000000000000000000000000000000000000000000815260040180806020018281038252601f8152602001807f5468697320616464726573732068617320616c7265616479206f787967656e0081525060200191505060405180910390fd5b611ac38168a2a15d09519be0000061239c565b6001601160008373ffffffffffffffffffffffffffffffffffffffff1673ffffffffffffffffffffffffffffffffffffffff16815260200190815260200160002060006101000a81548160ff02191690831515021790555050565b6000600160008473ffffffffffffffffffffffffffffffffffffffff1673ffffffffffffffffffffffffffffffffffffffff16815260200190815260200160002060008373ffffffffffffffffffffffffffffffffffffffff1673ffffffffffffffffffffffffffffffffffffffff16815260200190815260200160002054905092915050565b611bad611d9a565b73ffffffffffffffffffffffffffffffffffffffff16611bcb610d94565b73ffffffffffffffffffffffffffffffffffffffff1614611c54576040517f08c379a00000000000000000000000000000000000000000000000000000000081526004018080602001828103825260208152602001807f4f776e61626c653a2063616c6c6572206973206e6f7420746865206f776e657281525060200191505060405180910390fd5b600073ffffffffffffffffffffffffffffffffffffffff168173ffffffffffffffffffffffffffffffffffffffff161415611cda576040517f08c379a000000000000000000000000000000000000000000000000000000000815260040180806020018281038252602681526020018061271e6026913960400191505060405180910390fd5b8073ffffffffffffffffffffffffffffffffffffffff16600560019054906101000a900473ffffffffffffffffffffffffffffffffffffffff1673ffffffffffffffffffffffffffffffffffffffff167f8be0079c531659141344cd1fd0a4f28419497f9722a3daafe3b4186f6b6457e060405160405180910390a380600560016101000a81548173ffffffffffffffffffffffffffffffffffffffff021916908373ffffffffffffffffffffffffffffffffffffffff16021790555050565b600033905090565b600073ffffffffffffffffffffffffffffffffffffffff168373ffffffffffffffffffffffffffffffffffffffff161415611e28576040517f08c379a00000000000000000000000000000000000000000000000000000000081526004018080602001828103825260248152602001806127fa6024913960400191505060405180910390fd5b600073ffffffffffffffffffffffffffffffffffffffff168273ffffffffffffffffffffffffffffffffffffffff161415611eae576040517f08c379a00000000000000000000000000000000000000000000000000000000081526004018080602001828103825260228152602001806127446022913960400191505060405180910390fd5b80600160008573ffffffffffffffffffffffffffffffffffffffff1673ffffffffffffffffffffffffffffffffffffffff16815260200190815260200160002060008473ffffffffffffffffffffffffffffffffffffffff1673ffffffffffffffffffffffffffffffffffffffff168152602001908152602001600020819055508173ffffffffffffffffffffffffffffffffffffffff168373ffffffffffffffffffffffffffffffffffffffff167f8c5be1e5ebec7d5bd14f71427d1e84f3dd0314c0f7b2291e5b200ac8c7c3b925836040518082815260200191505060405180910390a3505050565b600073ffffffffffffffffffffffffffffffffffffffff168373ffffffffffffffffffffffffffffffffffffffff16141561201f576040517f08c379a00000000000000000000000000000000000000000000000000000000081526004018080602001828103825260258152602001806127d56025913960400191505060405180910390fd5b600073ffffffffffffffffffffffffffffffffffffffff168273ffffffffffffffffffffffffffffffffffffffff1614156120a5576040517f08c379a00000000000000000000000000000000000000000000000000000000081526004018080602001828103825260238152602001806126fb6023913960400191505060405180910390fd5b6120b08383836126f5565b61211b81604051806060016040528060268152602001612766602691396000808773ffffffffffffffffffffffffffffffffffffffff1673ffffffffffffffffffffffffffffffffffffffff1681526020019081526020016000205461225a9092919063ffffffff16565b6000808573ffffffffffffffffffffffffffffffffffffffff1673ffffffffffffffffffffffffffffffffffffffff168152602001908152602001600020819055506121ae816000808573ffffffffffffffffffffffffffffffffffffffff1673ffffffffffffffffffffffffffffffffffffffff1681526020019081526020016000205461231490919063ffffffff16565b6000808473ffffffffffffffffffffffffffffffffffffffff1673ffffffffffffffffffffffffffffffffffffffff168152602001908152602001600020819055508173ffffffffffffffffffffffffffffffffffffffff168373ffffffffffffffffffffffffffffffffffffffff167fddf252ad1be2c89b69c2b068fc378daa952ba7f163c4a11628f55a4df523b3ef836040518082815260200191505060405180910390a3505050565b6000838311158290612307576040517f08c379a00000000000000000000000000000000000000000000000000000000081526004018080602001828103825283818151815260200191508051906020019080838360005b838110156122cc5780820151818401526020810190506122b1565b50505050905090810190601f1680156122f95780820380516001836020036101000a031916815260200191505b509250505060405180910390fd5b5082840390509392505050565b600080828401905083811015612392576040517f08c379a000000000000000000000000000000000000000000000000000000000815260040180806020018281038252601b8152602001807f536166654d6174683a206164646974696f6e206f766572666c6f77000000000081525060200191505060405180910390fd5b8091505092915050565b600073ffffffffffffffffffffffffffffffffffffffff168273ffffffffffffffffffffffffffffffffffffffff16141561243f576040517f08c379a000000000000000000000000000000000000000000000000000000000815260040180806020018281038252601f8152602001807f45524332303a206d696e7420746f20746865207a65726f20616464726573730081525060200191505060405180910390fd5b61244b600083836126f5565b6124608160025461231490919063ffffffff16565b6002819055506124b7816000808573ffffffffffffffffffffffffffffffffffffffff1673ffffffffffffffffffffffffffffffffffffffff1681526020019081526020016000205461231490919063ffffffff16565b6000808473ffffffffffffffffffffffffffffffffffffffff1673ffffffffffffffffffffffffffffffffffffffff168152602001908152602001600020819055508173ffffffffffffffffffffffffffffffffffffffff16600073ffffffffffffffffffffffffffffffffffffffff167fddf252ad1be2c89b69c2b068fc378daa952ba7f163c4a11628f55a4df523b3ef836040518082815260200191505060405180910390a35050565b6000828211156125db576040517f08c379a000000000000000000000000000000000000000000000000000000000815260040180806020018281038252601e8152602001807f536166654d6174683a207375627472616374696f6e206f766572666c6f77000081525060200191505060405180910390fd5b818303905092915050565b600080821161265d576040517f08c379a000000000000000000000000000000000000000000000000000000000815260040180806020018281038252601a8152602001807f536166654d6174683a206469766973696f6e206279207a65726f00000000000081525060200191505060405180910390fd5b81838161266657fe5b04905092915050565b60008083141561268257600090506126ef565b600082840290508284828161269357fe5b04146126ea576040517f08c379a000000000000000000000000000000000000000000000000000000000815260040180806020018281038252602181526020018061278c6021913960400191505060405180910390fd5b809150505b92915050565b50505056fe45524332303a207472616e7366657220746f20746865207a65726f20616464726573734f776e61626c653a206e6577206f776e657220697320746865207a65726f206164647265737345524332303a20617070726f766520746f20746865207a65726f206164647265737345524332303a207472616e7366657220616d6f756e7420657863656564732062616c616e6365536166654d6174683a206d756c7469706c69636174696f6e206f766572666c6f7745524332303a207472616e7366657220616d6f756e74206578636565647320616c6c6f77616e636545524332303a207472616e736665722066726f6d20746865207a65726f206164647265737345524332303a20617070726f76652066726f6d20746865207a65726f206164647265737345524332303a2064656372656173656420616c6c6f77616e63652062656c6f77207a65726fa2646970667358221220bfd7ac07e62da5193455d7882a7ae970c9931783d449f7fe72e69df3d0bf102964736f6c63430006060033",
  "immutableReferences": {},
  "source": "pragma solidity ^0.6.0;\n\nimport \"@openzeppelin/contracts/token/ERC20/ERC20.sol\";\nimport \"@openzeppelin/contracts/access/Ownable.sol\";\nimport \"@openzeppelin/contracts/math/SafeMath.sol\";\nimport \"@chainlink/contracts/src/v0.6/interfaces/AggregatorV3Interface.sol\";\n\ncontract Oxygen is ERC20, Ownable {\n    AggregatorV3Interface internal ethPriceFeed;\n    AggregatorV3Interface internal daiPriceFeed;\n    AggregatorV3Interface internal linkPriceFeed;\n\n    // Ropsten Price Feed contracts address (chainlink)\n    address ETHUSD = 0x30B5068156688f818cEa0874B580206dFe081a03;\n    address LINKUSD = 0x40c9885aa8213B40e3E8a0a9aaE69d4fb5915a3A;\n    address DAIUSD = 0xaF540Ca83c7da3181778e3D1E11A6137e7e0085B;\n\n    // Ropsten Link vs Dai contract address\n    address LinkContractAddress = 0x20fE562d797A42Dcb3399062AE9546cd06f63280;\n    address DaiContractAddress = 0xaD6D458402F60fD3Bd25163575031ACDce07538D;\n\n    ERC20 LINK;\n    ERC20 DAI;\n\n    using SafeMath for uint256;\n\n    mapping(address => uint256) public lastTimeReceiveOxygen;\n    mapping(address => bool) public airDropped;\n\n    uint256 public amountOxygenReceiveOneTime;\n    uint256 public scopeTimeReceiveOxygen;\n\n    constructor(uint256 amountOxygen, uint256 scopeTime)\n        public\n        ERC20(\"Oxygen\", \"OX\")\n    {\n        // ethPriceFeed = AggregatorV3Interface(ETHUSD);\n        // linkPriceFeed = AggregatorV3Interface(LINKUSD);\n        // daiPriceFeed = AggregatorV3Interface(DAIUSD);\n\n        // LINK = ERC20(LinkContractAddress);\n        // DAI = ERC20(DaiContractAddress);\n\n        amountOxygenReceiveOneTime = amountOxygen;\n        scopeTimeReceiveOxygen = scopeTime;\n    }\n\n    // function getLatestPrice(uint8 tokenType) public view returns (int256) {\n    //     if (tokenType == 0) {\n    //         (\n    //             uint80 roundID,\n    //             int256 price,\n    //             uint256 startedAt,\n    //             uint256 timeStamp,\n    //             uint80 answeredInRound\n    //         ) = ethPriceFeed.latestRoundData();\n\n    //         // If the round is not complete yet, timestamp is 0\n    //         require(timeStamp > 0, \"Round not complete\");\n    //         return price;\n    //     } else if (tokenType == 1) {\n    //         (\n    //             uint80 roundID,\n    //             int256 price,\n    //             uint256 startedAt,\n    //             uint256 timeStamp,\n    //             uint80 answeredInRound\n    //         ) = linkPriceFeed.latestRoundData();\n\n    //         // If the round is not complete yet, timestamp is 0\n    //         require(timeStamp > 0, \"Round not complete\");\n    //         return price;\n    //     } else if (tokenType == 2) {\n    //         (\n    //             uint80 roundID,\n    //             int256 price,\n    //             uint256 startedAt,\n    //             uint256 timeStamp,\n    //             uint80 answeredInRound\n    //         ) = daiPriceFeed.latestRoundData();\n\n    //         // If the round is not complete yet, timestamp is 0\n    //         require(timeStamp > 0, \"Round not complete\");\n    //         return price;\n    //     }\n    // }\n\n    function airDrop(address recipient) public onlyOwner {\n        require(!airDropped[recipient], \"This address has air dropped\");\n        require(balanceOf(recipient) == 0, \"This address has already oxygen\");\n\n        _mint(recipient, 3000000000000000000000);\n        airDropped[recipient] = true;\n    }\n\n    function receiveOxygen(address recipient, uint256 numberOfBonsai)\n        public\n        onlyOwner\n    {\n        uint256 lastTimeReceive = lastTimeReceiveOxygen[recipient];\n\n        if (lastTimeReceive == 0) {\n            lastTimeReceiveOxygen[recipient] = now;\n            return;\n        }\n\n        uint256 waitingTime = now.sub(lastTimeReceive);\n        require(\n            waitingTime > scopeTimeReceiveOxygen,\n            \"Not enough time to receive Oxy\"\n        );\n\n        uint256 timesReceive = waitingTime.div(scopeTimeReceiveOxygen);\n        uint256 totalReceive =\n            timesReceive.mul(amountOxygenReceiveOneTime.mul(numberOfBonsai));\n\n        _mint(recipient, totalReceive);\n        lastTimeReceiveOxygen[recipient] = lastTimeReceiveOxygen[recipient].add(\n            scopeTimeReceiveOxygen.mul(timesReceive)\n        );\n    }\n\n    function buyOxygen() public payable {\n        require(msg.value > 0, \"Amount can not less than zero\");\n        // uint256 priceUnit = uint256(getLatestPrice(0));\n        uint256 amountOxygen = 0;\n\n        if (msg.value == 1000000000000000000) {\n            amountOxygen = 10000000000000000000000;\n        } else if (msg.value == 5000000000000000000) {\n            amountOxygen = 100000000000000000000000;\n        } else if (msg.value == 10000000000000000000) {\n            amountOxygen = 1000000000000000000000000;\n        }\n        airDropped[msg.sender] = true;\n        _mint(msg.sender, amountOxygen);\n    }\n\n    function buyOxygenWithERC20(\n        uint8 tokenType,\n        uint256 value,\n        uint8 price\n    ) public returns (bool) {\n        address ownerAddress = owner();\n        bool isSuccess = false;\n        uint256 amountOxygen = 0;\n\n        if (tokenType == 1) {\n            // Link\n            isSuccess = LINK.transferFrom(msg.sender, ownerAddress, value);\n            if (isSuccess == true) {\n                if (price == 1) {\n                    amountOxygen = 1000000000000000000000;\n                } else if (price == 5) {\n                    amountOxygen = 10000000000000000000000;\n                } else if (price == 10) {\n                    amountOxygen = 100000000000000000000000;\n                }\n            } else return false;\n        } else if (tokenType == 2) {\n            // Dai\n            isSuccess = DAI.transferFrom(msg.sender, ownerAddress, value);\n            if (isSuccess == true) {\n                if (price == 1) {\n                    amountOxygen = 1000000000000000000000;\n                } else if (price == 5) {\n                    amountOxygen = 10000000000000000000000;\n                } else if (price == 10) {\n                    amountOxygen = 100000000000000000000000;\n                }\n            } else return false;\n        }\n\n        airDropped[msg.sender] = true;\n        _mint(msg.sender, amountOxygen);\n        return true;\n    }\n\n    function withDrawEther(uint256 value) public onlyOwner {\n        require(\n            value > 0 && value <= address(this).balance,\n            \"Value out of range\"\n        );\n        msg.sender.transfer(value);\n    }\n}\n",
  "sourcePath": "/Users/nguyenthanhbinh/Lab/teko/nft/contracts/Oxygen.sol",
  "compiler": {
    "name": "solc",
    "version": "0.6.6+commit.6c089d02.Emscripten.clang"
  },
  "schemaVersion": "3.4.1",
  "updatedAt": "2021-06-07T19:15:03.719Z",
  "networkType": "ethereum",
  "devdoc": {
    "methods": {
      "allowance(address,address)": {
        "details": "See {IERC20-allowance}."
      },
      "approve(address,uint256)": {
        "details": "See {IERC20-approve}.     * Requirements:     * - `spender` cannot be the zero address."
      },
      "balanceOf(address)": {
        "details": "See {IERC20-balanceOf}."
      },
      "decimals()": {
        "details": "Returns the number of decimals used to get its user representation. For example, if `decimals` equals `2`, a balance of `505` tokens should be displayed to a user as `5,05` (`505 / 10 ** 2`).     * Tokens usually opt for a value of 18, imitating the relationship between Ether and Wei. This is the value {ERC20} uses, unless {_setupDecimals} is called.     * NOTE: This information is only used for _display_ purposes: it in no way affects any of the arithmetic of the contract, including {IERC20-balanceOf} and {IERC20-transfer}."
      },
      "decreaseAllowance(address,uint256)": {
        "details": "Atomically decreases the allowance granted to `spender` by the caller.     * This is an alternative to {approve} that can be used as a mitigation for problems described in {IERC20-approve}.     * Emits an {Approval} event indicating the updated allowance.     * Requirements:     * - `spender` cannot be the zero address. - `spender` must have allowance for the caller of at least `subtractedValue`."
      },
      "increaseAllowance(address,uint256)": {
        "details": "Atomically increases the allowance granted to `spender` by the caller.     * This is an alternative to {approve} that can be used as a mitigation for problems described in {IERC20-approve}.     * Emits an {Approval} event indicating the updated allowance.     * Requirements:     * - `spender` cannot be the zero address."
      },
      "name()": {
        "details": "Returns the name of the token."
      },
      "owner()": {
        "details": "Returns the address of the current owner."
      },
      "renounceOwnership()": {
        "details": "Leaves the contract without owner. It will not be possible to call `onlyOwner` functions anymore. Can only be called by the current owner.     * NOTE: Renouncing ownership will leave the contract without an owner, thereby removing any functionality that is only available to the owner."
      },
      "symbol()": {
        "details": "Returns the symbol of the token, usually a shorter version of the name."
      },
      "totalSupply()": {
        "details": "See {IERC20-totalSupply}."
      },
      "transfer(address,uint256)": {
        "details": "See {IERC20-transfer}.     * Requirements:     * - `recipient` cannot be the zero address. - the caller must have a balance of at least `amount`."
      },
      "transferFrom(address,address,uint256)": {
        "details": "See {IERC20-transferFrom}.     * Emits an {Approval} event indicating the updated allowance. This is not required by the EIP. See the note at the beginning of {ERC20}.     * Requirements:     * - `sender` and `recipient` cannot be the zero address. - `sender` must have a balance of at least `amount`. - the caller must have allowance for ``sender``'s tokens of at least `amount`."
      },
      "transferOwnership(address)": {
        "details": "Transfers ownership of the contract to a new account (`newOwner`). Can only be called by the current owner."
      }
    }
  },
  "userdoc": {
    "methods": {}
  }
}